{
    "contractName": "SimpleMintContract",
    "abi": [
        {
            "inputs": [],
            "stateMutability": "payable",
            "type": "constructor"
        },
        {
            "anonymous": false,
            "inputs": [
                {
                    "indexed": true,
                    "internalType": "address",
                    "name": "owner",
                    "type": "address"
                },
                {
                    "indexed": true,
                    "internalType": "address",
                    "name": "approved",
                    "type": "address"
                },
                {
                    "indexed": true,
                    "internalType": "uint256",
                    "name": "tokenId",
                    "type": "uint256"
                }
            ],
            "name": "Approval",
            "type": "event"
        },
        {
            "anonymous": false,
            "inputs": [
                {
                    "indexed": true,
                    "internalType": "address",
                    "name": "owner",
                    "type": "address"
                },
                {
                    "indexed": true,
                    "internalType": "address",
                    "name": "operator",
                    "type": "address"
                },
                {
                    "indexed": false,
                    "internalType": "bool",
                    "name": "approved",
                    "type": "bool"
                }
            ],
            "name": "ApprovalForAll",
            "type": "event"
        },
        {
            "anonymous": false,
            "inputs": [
                {
                    "indexed": true,
                    "internalType": "address",
                    "name": "previousOwner",
                    "type": "address"
                },
                {
                    "indexed": true,
                    "internalType": "address",
                    "name": "newOwner",
                    "type": "address"
                }
            ],
            "name": "OwnershipTransferred",
            "type": "event"
        },
        {
            "anonymous": false,
            "inputs": [
                {
                    "indexed": true,
                    "internalType": "address",
                    "name": "from",
                    "type": "address"
                },
                {
                    "indexed": true,
                    "internalType": "address",
                    "name": "to",
                    "type": "address"
                },
                {
                    "indexed": true,
                    "internalType": "uint256",
                    "name": "tokenId",
                    "type": "uint256"
                }
            ],
            "name": "Transfer",
            "type": "event"
        },
        {
            "inputs": [
                {
                    "internalType": "address",
                    "name": "to",
                    "type": "address"
                },
                {
                    "internalType": "uint256",
                    "name": "tokenId",
                    "type": "uint256"
                }
            ],
            "name": "approve",
            "outputs": [],
            "stateMutability": "nonpayable",
            "type": "function"
        },
        {
            "inputs": [
                {
                    "internalType": "address",
                    "name": "owner",
                    "type": "address"
                }
            ],
            "name": "balanceOf",
            "outputs": [
                {
                    "internalType": "uint256",
                    "name": "",
                    "type": "uint256"
                }
            ],
            "stateMutability": "view",
            "type": "function"
        },
        {
            "inputs": [
                {
                    "internalType": "uint256",
                    "name": "tokenId",
                    "type": "uint256"
                }
            ],
            "name": "getApproved",
            "outputs": [
                {
                    "internalType": "address",
                    "name": "",
                    "type": "address"
                }
            ],
            "stateMutability": "view",
            "type": "function"
        },
        {
            "inputs": [
                {
                    "internalType": "address",
                    "name": "owner",
                    "type": "address"
                },
                {
                    "internalType": "address",
                    "name": "operator",
                    "type": "address"
                }
            ],
            "name": "isApprovedForAll",
            "outputs": [
                {
                    "internalType": "bool",
                    "name": "",
                    "type": "bool"
                }
            ],
            "stateMutability": "view",
            "type": "function"
        },
        {
            "inputs": [],
            "name": "isMintEnabled",
            "outputs": [
                {
                    "internalType": "bool",
                    "name": "",
                    "type": "bool"
                }
            ],
            "stateMutability": "view",
            "type": "function"
        },
        {
            "inputs": [],
            "name": "maxSupply",
            "outputs": [
                {
                    "internalType": "uint256",
                    "name": "",
                    "type": "uint256"
                }
            ],
            "stateMutability": "view",
            "type": "function"
        },
        {
            "inputs": [],
            "name": "mint",
            "outputs": [],
            "stateMutability": "payable",
            "type": "function"
        },
        {
            "inputs": [],
            "name": "mintPrice",
            "outputs": [
                {
                    "internalType": "uint256",
                    "name": "",
                    "type": "uint256"
                }
            ],
            "stateMutability": "view",
            "type": "function"
        },
        {
            "inputs": [
                {
                    "internalType": "address",
                    "name": "",
                    "type": "address"
                }
            ],
            "name": "mintedWallets",
            "outputs": [
                {
                    "internalType": "uint256",
                    "name": "",
                    "type": "uint256"
                }
            ],
            "stateMutability": "view",
            "type": "function"
        },
        {
            "inputs": [],
            "name": "name",
            "outputs": [
                {
                    "internalType": "string",
                    "name": "",
                    "type": "string"
                }
            ],
            "stateMutability": "view",
            "type": "function"
        },
        {
            "inputs": [],
            "name": "owner",
            "outputs": [
                {
                    "internalType": "address",
                    "name": "",
                    "type": "address"
                }
            ],
            "stateMutability": "view",
            "type": "function"
        },
        {
            "inputs": [
                {
                    "internalType": "uint256",
                    "name": "tokenId",
                    "type": "uint256"
                }
            ],
            "name": "ownerOf",
            "outputs": [
                {
                    "internalType": "address",
                    "name": "",
                    "type": "address"
                }
            ],
            "stateMutability": "view",
            "type": "function"
        },
        {
            "inputs": [],
            "name": "renounceOwnership",
            "outputs": [],
            "stateMutability": "nonpayable",
            "type": "function"
        },
        {
            "inputs": [
                {
                    "internalType": "address",
                    "name": "from",
                    "type": "address"
                },
                {
                    "internalType": "address",
                    "name": "to",
                    "type": "address"
                },
                {
                    "internalType": "uint256",
                    "name": "tokenId",
                    "type": "uint256"
                }
            ],
            "name": "safeTransferFrom",
            "outputs": [],
            "stateMutability": "nonpayable",
            "type": "function"
        },
        {
            "inputs": [
                {
                    "internalType": "address",
                    "name": "from",
                    "type": "address"
                },
                {
                    "internalType": "address",
                    "name": "to",
                    "type": "address"
                },
                {
                    "internalType": "uint256",
                    "name": "tokenId",
                    "type": "uint256"
                },
                {
                    "internalType": "bytes",
                    "name": "_data",
                    "type": "bytes"
                }
            ],
            "name": "safeTransferFrom",
            "outputs": [],
            "stateMutability": "nonpayable",
            "type": "function"
        },
        {
            "inputs": [
                {
                    "internalType": "address",
                    "name": "operator",
                    "type": "address"
                },
                {
                    "internalType": "bool",
                    "name": "approved",
                    "type": "bool"
                }
            ],
            "name": "setApprovalForAll",
            "outputs": [],
            "stateMutability": "nonpayable",
            "type": "function"
        },
        {
            "inputs": [
                {
                    "internalType": "uint256",
                    "name": "maxSupply_",
                    "type": "uint256"
                }
            ],
            "name": "setMaxSupply",
            "outputs": [],
            "stateMutability": "nonpayable",
            "type": "function"
        },
        {
            "inputs": [
                {
                    "internalType": "bytes4",
                    "name": "interfaceId",
                    "type": "bytes4"
                }
            ],
            "name": "supportsInterface",
            "outputs": [
                {
                    "internalType": "bool",
                    "name": "",
                    "type": "bool"
                }
            ],
            "stateMutability": "view",
            "type": "function"
        },
        {
            "inputs": [],
            "name": "symbol",
            "outputs": [
                {
                    "internalType": "string",
                    "name": "",
                    "type": "string"
                }
            ],
            "stateMutability": "view",
            "type": "function"
        },
        {
            "inputs": [],
            "name": "toggleIsMintEnalbed",
            "outputs": [],
            "stateMutability": "nonpayable",
            "type": "function"
        },
        {
            "inputs": [
                {
                    "internalType": "uint256",
                    "name": "tokenId",
                    "type": "uint256"
                }
            ],
            "name": "tokenURI",
            "outputs": [
                {
                    "internalType": "string",
                    "name": "",
                    "type": "string"
                }
            ],
            "stateMutability": "view",
            "type": "function"
        },
        {
            "inputs": [],
            "name": "totalSupply",
            "outputs": [
                {
                    "internalType": "uint256",
                    "name": "",
                    "type": "uint256"
                }
            ],
            "stateMutability": "view",
            "type": "function"
        },
        {
            "inputs": [
                {
                    "internalType": "address",
                    "name": "from",
                    "type": "address"
                },
                {
                    "internalType": "address",
                    "name": "to",
                    "type": "address"
                },
                {
                    "internalType": "uint256",
                    "name": "tokenId",
                    "type": "uint256"
                }
            ],
            "name": "transferFrom",
            "outputs": [],
            "stateMutability": "nonpayable",
            "type": "function"
        },
        {
            "inputs": [
                {
                    "internalType": "address",
                    "name": "newOwner",
                    "type": "address"
                }
            ],
            "name": "transferOwnership",
            "outputs": [],
            "stateMutability": "nonpayable",
            "type": "function"
        }
    ],
    "bytecode": "66b1a2bc2ec50000600755600b60808181526a14da5b5c1b1948135a5b9d60aa1b60a0908152610100604052600660c09081526514d25352539560d21b60e05291926200004f91600091620000e3565b50805162000065906001906020840190620000e3565b505050620000826200007c6200008d60201b60201c565b62000091565b6002600955620001c6565b3390565b600680546001600160a01b038381166001600160a01b0319831681179093556040519116919082907f8be0079c531659141344cd1fd0a4f28419497f9722a3daafe3b4186f6b6457e090600090a35050565b828054620000f19062000189565b90600052602060002090601f01602090048101928262000115576000855562000160565b82601f106200013057805160ff191683800117855562000160565b8280016001018555821562000160579182015b828111156200016057825182559160200191906001019062000143565b506200016e92915062000172565b5090565b5b808211156200016e576000815560010162000173565b600181811c908216806200019e57607f821691505b60208210811415620001c057634e487b7160e01b600052602260045260246000fd5b50919050565b61193980620001d66000396000f3fe60806040526004361061014b5760003560e01c806370a08231116100b6578063b88d4fde1161006f578063b88d4fde14610392578063c78cb5d9146103b2578063c87b56dd146103c7578063d5abeb01146103e7578063e985e9c5146103fd578063f2fde38b1461044657600080fd5b806370a08231146102dd578063715018a6146102fd5780638da5cb5b1461031257806395d89b4114610330578063a22cb46514610345578063ada7c4ed1461036557600080fd5b806323b872dd1161010857806323b872dd1461022d578063346de50a1461024d57806342842e0e146102675780636352211e146102875780636817c76c146102a75780636f8b44b0146102bd57600080fd5b806301ffc9a71461015057806306fdde0314610185578063081812fc146101a7578063095ea7b3146101df5780631249c58b1461020157806318160ddd14610209575b600080fd5b34801561015c57600080fd5b5061017061016b366004611414565b610466565b60405190151581526020015b60405180910390f35b34801561019157600080fd5b5061019a6104b8565b60405161017c9190611489565b3480156101b357600080fd5b506101c76101c236600461149c565b61054a565b6040516001600160a01b03909116815260200161017c565b3480156101eb57600080fd5b506101ff6101fa3660046114d1565b6105e4565b005b6101ff6106fa565b34801561021557600080fd5b5061021f60085481565b60405190815260200161017c565b34801561023957600080fd5b506101ff6102483660046114fb565b61085b565b34801561025957600080fd5b50600a546101709060ff1681565b34801561027357600080fd5b506101ff6102823660046114fb565b61088c565b34801561029357600080fd5b506101c76102a236600461149c565b6108a7565b3480156102b357600080fd5b5061021f60075481565b3480156102c957600080fd5b506101ff6102d836600461149c565b61091e565b3480156102e957600080fd5b5061021f6102f8366004611537565b61094d565b34801561030957600080fd5b506101ff6109d4565b34801561031e57600080fd5b506006546001600160a01b03166101c7565b34801561033c57600080fd5b5061019a610a0a565b34801561035157600080fd5b506101ff610360366004611552565b610a19565b34801561037157600080fd5b5061021f610380366004611537565b600b6020526000908152604090205481565b34801561039e57600080fd5b506101ff6103ad3660046115a4565b610a28565b3480156103be57600080fd5b506101ff610a60565b3480156103d357600080fd5b5061019a6103e236600461149c565b610a9e565b3480156103f357600080fd5b5061021f60095481565b34801561040957600080fd5b50610170610418366004611680565b6001600160a01b03918216600090815260056020908152604080832093909416825291909152205460ff1690565b34801561045257600080fd5b506101ff610461366004611537565b610b86565b60006001600160e01b031982166380ac58cd60e01b148061049757506001600160e01b03198216635b5e139f60e01b145b806104b257506301ffc9a760e01b6001600160e01b03198316145b92915050565b6060600080546104c7906116b3565b80601f01602080910402602001604051908101604052809291908181526020018280546104f3906116b3565b80156105405780601f1061051557610100808354040283529160200191610540565b820191906000526020600020905b81548152906001019060200180831161052357829003601f168201915b5050505050905090565b6000818152600260205260408120546001600160a01b03166105c85760405162461bcd60e51b815260206004820152602c60248201527f4552433732313a20617070726f76656420717565727920666f72206e6f6e657860448201526b34b9ba32b73a103a37b5b2b760a11b60648201526084015b60405180910390fd5b506000908152600460205260409020546001600160a01b031690565b60006105ef826108a7565b9050806001600160a01b0316836001600160a01b0316141561065d5760405162461bcd60e51b815260206004820152602160248201527f4552433732313a20617070726f76616c20746f2063757272656e74206f776e656044820152603960f91b60648201526084016105bf565b336001600160a01b038216148061067957506106798133610418565b6106eb5760405162461bcd60e51b815260206004820152603860248201527f4552433732313a20617070726f76652063616c6c6572206973206e6f74206f7760448201527f6e6572206e6f7220617070726f76656420666f7220616c6c000000000000000060648201526084016105bf565b6106f58383610c1e565b505050565b600a5460ff166107415760405162461bcd60e51b81526020600482015260126024820152716d696e74696e67206e6f7420656e61626c6560701b60448201526064016105bf565b336000908152600b60205260409020546001116107995760405162461bcd60e51b8152602060048201526016602482015275195e18d959591cc81b585e081c195c881dd85b1b195d60521b60448201526064016105bf565b60075434146107d85760405162461bcd60e51b815260206004820152600b60248201526a77726f6e672076616c756560a81b60448201526064016105bf565b600854600954116108165760405162461bcd60e51b81526020600482015260086024820152671cdbdb19081bdd5d60c21b60448201526064016105bf565b336000908152600b6020526040812080549161083183611704565b90915550506008805490600061084683611704565b90915550506008546108583382610c8c565b50565b6108653382610ca6565b6108815760405162461bcd60e51b81526004016105bf9061171f565b6106f5838383610d9d565b6106f583838360405180602001604052806000815250610a28565b6000818152600260205260408120546001600160a01b0316806104b25760405162461bcd60e51b815260206004820152602960248201527f4552433732313a206f776e657220717565727920666f72206e6f6e657869737460448201526832b73a103a37b5b2b760b91b60648201526084016105bf565b6006546001600160a01b031633146109485760405162461bcd60e51b81526004016105bf90611770565b600955565b60006001600160a01b0382166109b85760405162461bcd60e51b815260206004820152602a60248201527f4552433732313a2062616c616e636520717565727920666f7220746865207a65604482015269726f206164647265737360b01b60648201526084016105bf565b506001600160a01b031660009081526003602052604090205490565b6006546001600160a01b031633146109fe5760405162461bcd60e51b81526004016105bf90611770565b610a086000610f39565b565b6060600180546104c7906116b3565b610a24338383610f8b565b5050565b610a323383610ca6565b610a4e5760405162461bcd60e51b81526004016105bf9061171f565b610a5a8484848461105a565b50505050565b6006546001600160a01b03163314610a8a5760405162461bcd60e51b81526004016105bf90611770565b600a805460ff19811660ff90911615179055565b6000818152600260205260409020546060906001600160a01b0316610b1d5760405162461bcd60e51b815260206004820152602f60248201527f4552433732314d657461646174613a2055524920717565727920666f72206e6f60448201526e3732bc34b9ba32b73a103a37b5b2b760891b60648201526084016105bf565b6000610b3460408051602081019091526000815290565b90506000815111610b545760405180602001604052806000815250610b7f565b80610b5e8461108d565b604051602001610b6f9291906117a5565b6040516020818303038152906040525b9392505050565b6006546001600160a01b03163314610bb05760405162461bcd60e51b81526004016105bf90611770565b6001600160a01b038116610c155760405162461bcd60e51b815260206004820152602660248201527f4f776e61626c653a206e6577206f776e657220697320746865207a65726f206160448201526564647265737360d01b60648201526084016105bf565b61085881610f39565b600081815260046020526040902080546001600160a01b0319166001600160a01b0384169081179091558190610c53826108a7565b6001600160a01b03167f8c5be1e5ebec7d5bd14f71427d1e84f3dd0314c0f7b2291e5b200ac8c7c3b92560405160405180910390a45050565b610a2482826040518060200160405280600081525061118b565b6000818152600260205260408120546001600160a01b0316610d1f5760405162461bcd60e51b815260206004820152602c60248201527f4552433732313a206f70657261746f7220717565727920666f72206e6f6e657860448201526b34b9ba32b73a103a37b5b2b760a11b60648201526084016105bf565b6000610d2a836108a7565b9050806001600160a01b0316846001600160a01b03161480610d655750836001600160a01b0316610d5a8461054a565b6001600160a01b0316145b80610d9557506001600160a01b0380821660009081526005602090815260408083209388168352929052205460ff165b949350505050565b826001600160a01b0316610db0826108a7565b6001600160a01b031614610e145760405162461bcd60e51b815260206004820152602560248201527f4552433732313a207472616e736665722066726f6d20696e636f72726563742060448201526437bbb732b960d91b60648201526084016105bf565b6001600160a01b038216610e765760405162461bcd60e51b8152602060048201526024808201527f4552433732313a207472616e7366657220746f20746865207a65726f206164646044820152637265737360e01b60648201526084016105bf565b610e81600082610c1e565b6001600160a01b0383166000908152600360205260408120805460019290610eaa9084906117d4565b90915550506001600160a01b0382166000908152600360205260408120805460019290610ed89084906117eb565b909155505060008181526002602052604080822080546001600160a01b0319166001600160a01b0386811691821790925591518493918716917fddf252ad1be2c89b69c2b068fc378daa952ba7f163c4a11628f55a4df523b3ef91a4505050565b600680546001600160a01b038381166001600160a01b0319831681179093556040519116919082907f8be0079c531659141344cd1fd0a4f28419497f9722a3daafe3b4186f6b6457e090600090a35050565b816001600160a01b0316836001600160a01b03161415610fed5760405162461bcd60e51b815260206004820152601960248201527f4552433732313a20617070726f766520746f2063616c6c65720000000000000060448201526064016105bf565b6001600160a01b03838116600081815260056020908152604080832094871680845294825291829020805460ff191686151590811790915591519182527f17307eab39ab6107e8899845ad3d59bd9653f200f220920489ca2b5937696c31910160405180910390a3505050565b611065848484610d9d565b611071848484846111be565b610a5a5760405162461bcd60e51b81526004016105bf90611803565b6060816110b15750506040805180820190915260018152600360fc1b602082015290565b8160005b81156110db57806110c581611704565b91506110d49050600a8361186b565b91506110b5565b60008167ffffffffffffffff8111156110f6576110f661158e565b6040519080825280601f01601f191660200182016040528015611120576020820181803683370190505b5090505b8415610d95576111356001836117d4565b9150611142600a8661187f565b61114d9060306117eb565b60f81b81838151811061116257611162611893565b60200101906001600160f81b031916908160001a905350611184600a8661186b565b9450611124565b61119583836112bc565b6111a260008484846111be565b6106f55760405162461bcd60e51b81526004016105bf90611803565b60006001600160a01b0384163b156112b157604051630a85bd0160e11b81526001600160a01b0385169063150b7a02906112029033908990889088906004016118a9565b6020604051808303816000875af192505050801561123d575060408051601f3d908101601f1916820190925261123a918101906118e6565b60015b611297573d80801561126b576040519150601f19603f3d011682016040523d82523d6000602084013e611270565b606091505b50805161128f5760405162461bcd60e51b81526004016105bf90611803565b805181602001fd5b6001600160e01b031916630a85bd0160e11b149050610d95565b506001949350505050565b6001600160a01b0382166113125760405162461bcd60e51b815260206004820181905260248201527f4552433732313a206d696e7420746f20746865207a65726f206164647265737360448201526064016105bf565b6000818152600260205260409020546001600160a01b0316156113775760405162461bcd60e51b815260206004820152601c60248201527f4552433732313a20746f6b656e20616c7265616479206d696e7465640000000060448201526064016105bf565b6001600160a01b03821660009081526003602052604081208054600192906113a09084906117eb565b909155505060008181526002602052604080822080546001600160a01b0319166001600160a01b03861690811790915590518392907fddf252ad1be2c89b69c2b068fc378daa952ba7f163c4a11628f55a4df523b3ef908290a45050565b6001600160e01b03198116811461085857600080fd5b60006020828403121561142657600080fd5b8135610b7f816113fe565b60005b8381101561144c578181015183820152602001611434565b83811115610a5a5750506000910152565b60008151808452611475816020860160208601611431565b601f01601f19169290920160200192915050565b602081526000610b7f602083018461145d565b6000602082840312156114ae57600080fd5b5035919050565b80356001600160a01b03811681146114cc57600080fd5b919050565b600080604083850312156114e457600080fd5b6114ed836114b5565b946020939093013593505050565b60008060006060848603121561151057600080fd5b611519846114b5565b9250611527602085016114b5565b9150604084013590509250925092565b60006020828403121561154957600080fd5b610b7f826114b5565b6000806040838503121561156557600080fd5b61156e836114b5565b91506020830135801515811461158357600080fd5b809150509250929050565b634e487b7160e01b600052604160045260246000fd5b600080600080608085870312156115ba57600080fd5b6115c3856114b5565b93506115d1602086016114b5565b925060408501359150606085013567ffffffffffffffff808211156115f557600080fd5b818701915087601f83011261160957600080fd5b81358181111561161b5761161b61158e565b604051601f8201601f19908116603f011681019083821181831017156116435761164361158e565b816040528281528a602084870101111561165c57600080fd5b82602086016020830137600060208483010152809550505050505092959194509250565b6000806040838503121561169357600080fd5b61169c836114b5565b91506116aa602084016114b5565b90509250929050565b600181811c908216806116c757607f821691505b602082108114156116e857634e487b7160e01b600052602260045260246000fd5b50919050565b634e487b7160e01b600052601160045260246000fd5b6000600019821415611718576117186116ee565b5060010190565b60208082526031908201527f4552433732313a207472616e736665722063616c6c6572206973206e6f74206f6040820152701ddb995c881b9bdc88185c1c1c9bdd9959607a1b606082015260800190565b6020808252818101527f4f776e61626c653a2063616c6c6572206973206e6f7420746865206f776e6572604082015260600190565b600083516117b7818460208801611431565b8351908301906117cb818360208801611431565b01949350505050565b6000828210156117e6576117e66116ee565b500390565b600082198211156117fe576117fe6116ee565b500190565b60208082526032908201527f4552433732313a207472616e7366657220746f206e6f6e20455243373231526560408201527131b2b4bb32b91034b6b83632b6b2b73a32b960711b606082015260800190565b634e487b7160e01b600052601260045260246000fd5b60008261187a5761187a611855565b500490565b60008261188e5761188e611855565b500690565b634e487b7160e01b600052603260045260246000fd5b6001600160a01b03858116825284166020820152604081018390526080606082018190526000906118dc9083018461145d565b9695505050505050565b6000602082840312156118f857600080fd5b8151610b7f816113fe56fea264697066735822122058ba45697637da5b61c9a56f6fee46a6566d384799a6e7ecf0fc1308cb4c489964736f6c634300080c0033",
    "sourcePath": "c:/Users/sacha/Documents/Solidity Smart Contracts/NFT Creation tutorial 2/ethereum/contracts/simpleMint.sol",
    "compiler": {
        "name": "solc",
        "version": "0.8.12+commit.f00d7308"
    },
    "functionHashes": {
        "approve(address,uint256)": "095ea7b3",
        "balanceOf(address)": "70a08231",
        "getApproved(uint256)": "081812fc",
        "isApprovedForAll(address,address)": "e985e9c5",
        "isMintEnabled()": "346de50a",
        "maxSupply()": "d5abeb01",
        "mint()": "1249c58b",
        "mintPrice()": "6817c76c",
        "mintedWallets(address)": "ada7c4ed",
        "name()": "06fdde03",
        "owner()": "8da5cb5b",
        "ownerOf(uint256)": "6352211e",
        "renounceOwnership()": "715018a6",
        "safeTransferFrom(address,address,uint256)": "42842e0e",
        "safeTransferFrom(address,address,uint256,bytes)": "b88d4fde",
        "setApprovalForAll(address,bool)": "a22cb465",
        "setMaxSupply(uint256)": "6f8b44b0",
        "supportsInterface(bytes4)": "01ffc9a7",
        "symbol()": "95d89b41",
        "toggleIsMintEnalbed()": "c78cb5d9",
        "tokenURI(uint256)": "c87b56dd",
        "totalSupply()": "18160ddd",
        "transferFrom(address,address,uint256)": "23b872dd",
        "transferOwnership(address)": "f2fde38b"
    },
    "gasEstimates": {
        "creation": {
            "codeDepositCost": "1291400",
            "executionCost": "infinite",
            "totalCost": "infinite"
        },
        "external": {
            "approve(address,uint256)": "infinite",
            "balanceOf(address)": "2612",
            "getApproved(uint256)": "4760",
            "isApprovedForAll(address,address)": "infinite",
            "isMintEnabled()": "2344",
            "maxSupply()": "2383",
            "mint()": "infinite",
            "mintPrice()": "2406",
            "mintedWallets(address)": "2652",
            "name()": "infinite",
            "owner()": "2398",
            "ownerOf(uint256)": "2645",
            "renounceOwnership()": "28162",
            "safeTransferFrom(address,address,uint256)": "infinite",
            "safeTransferFrom(address,address,uint256,bytes)": "infinite",
            "setApprovalForAll(address,bool)": "26797",
            "setMaxSupply(uint256)": "24597",
            "supportsInterface(bytes4)": "534",
            "symbol()": "infinite",
            "toggleIsMintEnalbed()": "26567",
            "tokenURI(uint256)": "infinite",
            "totalSupply()": "2429",
            "transferFrom(address,address,uint256)": "infinite",
            "transferOwnership(address)": "28444"
        }
    }
}